{
  "_format": "hh3-artifact-1",
  "contractName": "Poster",
  "sourceName": "contracts/Poster.sol",
  "abi": [
    {
      "anonymous": false,
      "inputs": [
        {
          "indexed": true,
          "internalType": "address",
          "name": "user",
          "type": "address"
        },
        {
          "indexed": false,
          "internalType": "string",
          "name": "content",
          "type": "string"
        },
        {
          "indexed": true,
          "internalType": "string",
          "name": "tag",
          "type": "string"
        }
      ],
      "name": "NewPost",
      "type": "event"
    },
    {
      "inputs": [
        {
          "internalType": "string",
          "name": "content",
          "type": "string"
        },
        {
          "internalType": "string",
          "name": "tag",
          "type": "string"
        }
      ],
      "name": "post",
      "outputs": [],
      "stateMutability": "nonpayable",
      "type": "function"
    }
  ],
  "bytecode": "0x6080604052348015600e575f5ffd5b506102228061001c5f395ff3fe608060405234801561000f575f5ffd5b5060043610610029575f3560e01c80630ae1b13d1461002d575b5f5ffd5b61004061003b36600461013c565b610042565b005b8060405161005091906101a1565b6040518091039020336001600160a01b03167f6c7f3182d7e4cb876251f9ae1489975fdbbf15d9f35d393f2ac9b1ff57cec69f8460405161009191906101b7565b60405180910390a35050565b634e487b7160e01b5f52604160045260245ffd5b5f82601f8301126100c0575f5ffd5b813567ffffffffffffffff8111156100da576100da61009d565b604051601f8201601f19908116603f0116810167ffffffffffffffff811182821017156101095761010961009d565b604052818152838201602001851015610120575f5ffd5b816020850160208301375f918101602001919091529392505050565b5f5f6040838503121561014d575f5ffd5b823567ffffffffffffffff811115610163575f5ffd5b61016f858286016100b1565b925050602083013567ffffffffffffffff81111561018b575f5ffd5b610197858286016100b1565b9150509250929050565b5f82518060208501845e5f920191825250919050565b602081525f82518060208401528060208501604085015e5f604082850101526040601f19601f8301168401019150509291505056fea2646970667358221220cb83521a66ca9346d2aa079295c21d80f49c46ec4c04a8585117e7e00da57e4364736f6c634300081c0033",
  "linkReferences": {},
  "deployedLinkReferences": {},
  "immutableReferences": {},
  "inputSourceName": "project/contracts/Poster.sol",
  "buildInfoId": "solc-0_8_28-523fd4a50eb0ddea1e646c4c5aaf25fd8f11ab6f"
}